:030000000209C929
:0C09C900787FE4F6D8FD758137020A1033
:100A5500456E7465722050617373776F72640055CB
:100A65006E617574686F72697A6564004163636568
:100A750073730057726F6E672050617373776F726F
:100A85006400417474656D707473206C6566743AA6
:100A950000436F72726563742050617373776F7270
:070AA5006400380E01068019
:100BB6001024313233230000000000000000000042
:020BC60000002D
:100B1000E4F520F521E521900AA793FF120B71124D
:100B20000B340521E52170020520C39405E52094CE
:040B30000040E2227D
:100B71008FA0C2B0C2B1D2B27F017E00120B38C2C7
:080B8100B27F017E00020B3877
:100B89008FA0D2B0C2B1D2B27F017E00120B38C29F
:080B9900B27F017E00020B385F
:060AAC008B348A35893607
:100AB200120BA18F37E4F520F521C3E5219537E527
:100AC2002094005022AB34AA35A936120B58FF12DB
:100AD2000B8974012536F536E43535F5350521E502
:070AE2002170D7052080D32D
:010AE90022EA
:030BD500020B8987
:0C0BC9007F01120B717F017E00020B38CF
:070AEA007D027C00E4FFFE29
:100AF1008E348F35ED64014C7005EF24808004E560
:0F0B01003524C0FF120B717F017E00120B3822CA
:040B34007F647E005C
:100B3800E4FDFCC3ED9FEC9E5015E4FBFA0BBB00F3
:0F0B4800010ABA04F8BBFBF50DBD00010C80E4F7
:010B5700227B
:10080000120B107F017E00120B38D297750833E46B
:10081000F50DF50E740F250EF8E4F6050EE50E70D5
:1008200002050D6410450D70EB750900750A01E4B1
:10083000F50BF50C120B107F017E00120B387BFFBD
:100840007A0A7955120AAC120AEA1209108F1FEFC0
:10085000700AA297FE338E09F50A70EEE50A450983
:1008600060030208F2120BC97D01120AECE4F50DD7
:10087000F50EC3E50E9410E50D9400506AAF0E74AA
:10088000242FF8E6FE740F2FF8E66E604F1508E58A
:10089000086430701F120BC97D01120AEC7BFF7ACD
:1008A0000A7964120AAC120AEA7BFF7A0A79711299
:1008B0000AAC80FE7BFF7A0A7978120AAC120AEA47
:1008C0007BFF7A0A7987120AAC7D027C007F0F7E5B
:1008D00000120AF1AF08120BD502080F050EE50E43
:1008E0007002050D0208727BFF7A0A7996120AAC33
:1008F00080FE740F250CF8A61F050CE50C70020590
:100900000B7F2A120BD57F0A7E00120B3802084A91
:10091000D290D291D292C293D294D295D296209074
:1009200009120B343090FD7F3122209109120B34D3
:100930003091FD7F3222209209120B343092FD7FDC
:100940003322D293C294D295D296209009120B34BE
:100950003090FD7F3422209109120B343091FD7FBD
:100960003522209209120B343092FD7F3622D29329
:10097000D294C295D296209009120B343090FD7F0C
:100980003722209109120B343091FD7F38222092BA
:1009900009120B343092FD7F3922D293D294D29532
:1009A000C296209009120B343090FD7F2A222091AC
:1009B00009120B343091FD7F3022209209120B3442
:0909C0003092FD7F23227F00220A
:1009D500020800E493A3F8E493A34003F68001F230
:1009E50008DFF48029E493A3F85407240CC8C33323
:1009F500C4540F4420C8834004F456800146F6DFF2
:100A0500E4800B0102040810204080900BB6E47EC0
:100A1500019360BCA3FF543F30E509541FFEE493E6
:100A2500A360010ECF54C025E060A840B8E493A3AD
:100A3500FAE493A3F8E493A3C8C582C8CAC583CAD8
:100A4500F0A3C8C582C8CAC583CADFE9DEE780BE90
:010BC800002C
:100B5800BB010689828A83E0225002E722BBFE029B
:090B6800E32289828A83E49322CE
:100BA100E4FFFE120B58600C0FEF70010E09E970A3
:050BB100F20A80EF22B2
:00000001FF
